:100000000C942A000C9447000C9447000C94470071
:100010000C9447000C9447000C9447000C94470044
:100020000C9447000C945F000C9447000C9449001A
:100030000C9447000C9447000C9447000C94470024
:100040000C9447000C9447000C9447000C94470014
:100050000C94470011241FBECFE5D8E0DEBFCDBF12
:1000600010E0A0E6B0E0EAEBF3E002C005900D92EC
:10007000A237B107D9F710E0A2E7B0E001C01D92A6
:10008000A637B107E1F70E9471000C94DB010C94D4
:1000900000001F920F920FB60F9211248F93809140
:1000A00072008F5F809372008150813011F4109242
:1000B00072008F910F900FBE0F901F9018951F9296
:1000C0000F920FB60F9211248F939F9388EE93E0B7
:1000D0009DBD8CBD9F918F910F900FBE0F901F9073
:1000E00018950F931F93CF93DF938FEF8ABB87BB36
:1000F00014BA85BB84E08EBD82E083BF85E089BFF2
:10010000789408E813E1E0917200F0E0ED58FF4FB9
:10011000E081F0E0E05AFF4F80818BBBE0917200FC
:10012000F0E0E659FF4F808188BB989918C0C0E085
:10013000D0E00E94110166E070E00E9421018F5F13
:10014000809373000E94110166E070E00E9421011B
:100150008F5F809374002196C931D10551F7999929
:10016000D2CF0E94110166E070E00E9421018F5FF2
:1001700080937300C8010197F1F710927400C3CF08
:10018000A0E0B0E0E6ECF0E00C948A01EC01A8807D
:10019000B980CA80DB80A114B104C104D10441F448
:1001A00084E2A82E89EDB82E8BE5C82E87E0D82EE4
:1001B000C601B5012DE133EF41E050E00E94670137
:1001C00027EA31E440E050E00E9448017B018C01C5
:1001D000C601B5012DE133EF41E050E00E94670117
:1001E000CA01B9012CEE34EF4FEF5FEF0E944801D6
:1001F0006E0D7F1D801F911F97FF04C061507040DE
:1002000080409048688379838A839B839B013F77F2
:10021000C901CDB7DEB7EAE00C94A6010E94C00088
:1002200008958EE690E00E94C0000895A0E0B0E03E
:1002300080936E0090936F00A0937000B093710054
:10024000089597FB092E07260AD077FD04D00CD01D
:1002500006D000201AF4709561957F4F0895F6F747
:10026000909581959F4F0895AA1BBB1B51E107C034
:10027000AA1FBB1FA617B70710F0A61BB70B881F36
:10028000991F5A95A9F780959095BC01CD010895C5
:10029000629FD001739FF001829FE00DF11D649F6A
:1002A000E00DF11D929FF00D839FF00D749FF00DF6
:1002B000659FF00D9927729FB00DE11DF91F639F97
:1002C000B00DE11DF91FBD01CF011124089597FB69
:1002D000092E05260ED057FD04D04BD00AD0001CA5
:1002E00038F450954095309521953F4F4F4F5F4FD3
:1002F0000895F6F790958095709561957F4F8F4F93
:100300009F4F08952F923F924F925F926F927F92EC
:100310008F929F92AF92BF92CF92DF92EF92FF9215
:100320000F931F93CF93DF93CDB7DEB7CA1BDB0BC1
:100330000FB6F894DEBF0FBECDBF09942A88398866
:1003400048885F846E847D848C849B84AA84B9846D
:10035000C884DF80EE80FD800C811B81AA81B98179
:10036000CE0FD11D0FB6F894DEBF0FBECDBFED018D
:100370000895A1E21A2EAA1BBB1BFD010DC0AA1FE6
:10038000BB1FEE1FFF1FA217B307E407F50720F0FE
:10039000A21BB30BE40BF50B661F771F881F991F79
:1003A0001A9469F760957095809590959B01AC01C2
:0A03B000BD01CF010895F894FFCFBE
:1003BA00C0F9A4B0999282F88090F7FBFDFE010083
:0203CA00000031
:00000001FF
